:100000000C942F000C9400000C9400000C94000041
:100010000C9400000C9400000C9400000C94000060
:100020000C9400000C9400000C9400000C94000050
:100030000C9400000C9400000C9400000C94000040
:100040000C9400000C9400000C9400000C94000030
:040050000C9400000C
:10005E00BFE5BDBFB8E0BEBF0E947100BFEFB4BB2D
:10006E00BFE0BABBB1E0BBBBB0E0B0938000409143
:10007E008000242F30E0220F331F00E610E0F9013C
:10008E00E00FF11F008105BB042F0F5F009380006E
:10009E0029E216E900E80A95F1F71A95E1F72A9593
:1000AE00D1F700918000003119F4B0E0B0938000D8
:0400BE00DECFFFCFC3
:0A00540005900D920197E1F7089561
:1000E200A0E6B0E0E2ECF0E080E290E00E942A00BC
:0200F20008956F
:1000C2003F0006005B004F0066006D007D000700E8
:1000D2007F006F0077007C0039005E0079007100BC
:00000001FF
