:100000000C9438000C9400000C9400000C94000038
:100010000C9400000C9400000C9400000C94000060
:100020000C9400000C9400000C9400000C94000050
:100030000C9400000C9400000C9400000C94000040
:100040000C9400000C9400000C9400000C94000030
:040050000C9400000C
:10007000BFE5BDBFB4E0BEBFCDB7DEB72297CDBFF1
:10008000DEBF2196BFEFBABBB0E0B883B983088169
:100090001981173209F4003140F4DCDF088119813D
:1000A0000F5F1F4F08831983F2CF0BB3B1E00B270B
:0600B0000BBBEACFFFCFFD
:10005400BEECB2BFB1E0B3BF08B70170003009F421
:0C006400FBCFB0E0B3BFB1E0B8BF08951F
:00000001FF
