:100000000C9431000C9400000C9400000C9400003F
:100010000C9400000C9400000C9400000C94000060
:100020000C9400000C9400000C9400000C94000050
:100030000C9400000C9400000C9400000C94000040
:100040000C9400000C9400000C9400000C94000030
:040050000C9400000C
:10006200BFE5BDBFB8E0BEBFBFEFBABBB0E0BBBB30
:10007200F0DF0BB107FD01C0FCCF0CB100936000B3
:100082000BB105FD01C0FCCF009160000CB9F1CFAE
:02009200FFCF9E
:0E005400B8E1BAB9B6E8B0BDB3E3B9B90895E2
:00000001FF
