:100000000C943C000C9400000C9400000C94000034
:100010000C9400000C9400000C9400000C94000060
:100020000C9400000C9400000C9400000C94000050
:100030000C9400000C9400000C9400000C94000040
:100040000C9400000C9400000C9400000C94000030
:040050000C9400000C
:10007800BFE5BDBFB8E0BEBF0E94B6002F92BFEF7C
:10008800BABBB0E0BBBBEDDFBBB1B7FD01C0FCCF75
:100098000CB10093670000916700202F30E001E465
:1000A80010E020173107ACF0209167000AE510E056
:1000B8000217B0E01B076CF000916700005E009328
:1000C80067000BB105FD01C0FCCF009167000CB9BA
:1000D80042C000916700202F30E001E610E02017B1
:1000E8003107ACF0209167000AE710E00217B0E092
:1000F8001B076CF0009167000052009367000BB17A
:1001080005FD01C0FCCF009167000CB924C0B0E028
:10011800B0936800B093690000916800109169007D
:10012800103009F40630B8F420E630E00091680099
:1001380010916900F801E20FF31F0081202E86DF7D
:1001480000916800109169000F5F1F4F00936800CD
:0C01580010936900E1CF98CF2F90FFCFEB
:0E006A00B8E1BAB9B6E8B0BDB3E3B9B90895CC
:0C0054000BB105FD01C0FCCF2CB80895D5
:0A00600005900D920197E1F7089555
:10016C00A0E6B0E0E4E6F1E087E090E00E94300029
:02017C000895E4
:070164004552524F522100E9
:00000001FF
