:100000000C9438000C9400000C9400000C94000038
:100010000C9400000C9400000C9400000C94000060
:100020000C9400000C9400000C9400000C94000050
:100030000C9400000C9400000C9400000C94000040
:100040000C9400000C9400000C9400000C94000030
:040050000C9400000C
:10007000BFE5BDBFB4E0BEBFBFEFBABBBFEFB7BB0C
:10008000B1E0BBBBB0E0B8BBE5DFB1E0BBBBB1E00A
:10009000B8BBE0DFB0E0BBBBB1E0B8BBDBDFB0E0DA
:0C00A000BBBBB0E0B8BBD6DFEBCFFFCF9E
:10005400BAE0B3BFBAEFBCBF08B70270003009F40E
:0C006400FBCFB0E0B3BFB2E0B8BF08951E
:00000001FF
