:100000000C9438000C9400000C9400000C94000038
:100010000C9400000C9400000C9400000C94000060
:100020000C9400000C9400000C9400000C94000050
:100030000C9400000C9400000C9400000C94000040
:100040000C9400000C9400000C9400000C94000030
:040050000C9400000C
:10007000BFE5BDBFB4E0BEBFCDB7DEB72297CDBFF1
:10008000DEBF2196BFEFBABBBFEFB7BBB0E0B8830E
:10009000B98308811981133009F4083EC0F420E0C7
:1000A00030E0303009F42A3030F4D4DF89010F5FBA
:1000B0001F4F9801F6CF0BB3B1E00B270BBBCADF84
:1000C000088119810F5F1F4F08831983E2CF08B39E
:0A00D000B1E00B2708BBDACFFFCF29
:10005400BAE0B3BFB2E3BCBF08B70270003009F422
:0C006400FBCFB0E0B3BFB2E0B8BF08951E
:00000001FF
