:100000000C943C000C9400000C9400000C94000034
:100010000C9400000C9400000C9400000C94000060
:100020000C9400000C9400000C9400000C94000050
:100030000C9400000C9400000C9400000C94000040
:100040000C9400000C9400000C9400000C94000030
:040050000C9400000C
:10007800BFE5BDBFB8E0BEBFCDB7DEB72D97CDBFDA
:10008800DEBF21962F9200E0E5ECF0E0DE018DE086
:1000980090E0E2DFE6DF202F2F5F322F8E01E22F84
:1000A800F0E0E00FF11F0081202ED0DF3C3010F08F
:0C00B80000E001C0032FEFCF2F90FFCF1E
:0E006A00B8E0BAB9B6E8B0BDB3E3B9B90895CD
:0C0054000BB105FD01C0FCCF2CB80895D5
:0A00600005900D920197E1F7089555
:0100C400003B
:0D00C50048656C6C6F20776F726C642100D1
:00000001FF
