:100000000C94B2000C9400000C9443000C9400007B
:100010000C9400000C9400000C9400000C94000060
:100020000C9400000C9400000C940E010C94000041
:100030000C9400000C9400000C9400000C94000040
:100040000C9400000C9400000C9400000C94000030
:040050000C9400000C
:10016400BFE5BDBFB8E0BEBF0E945A01BFEFB4BB3C
:10017400BFE0BABBB1E0BBBBB0E4B1BBB8E0B2BB5B
:10018400BBE0B3BFB9EFBCBFBFB7B068BFBFB9B7BF
:10019400B260B9BFB8E0B5BFB0E8BBBF009186009C
:1001A400109187009801220F331F00E610E0F90137
:1001B400E00FF11F008100938E00009188001091E0
:1001C40089009801220F331F00E610E0F901E00FC7
:1001D400F11F008100938F00009182001091830031
:1001E4009801220F331F00E610E0F901E00FF11F20
:1001F4000081009390000091840010918500980183
:10020400220F331F00E610E0F901E00FF11F008117
:0802140000939100C3CFFFCF5E
:0A00540005900D920197E1F7089561
:1002B400A0E6B0E0E6E8F2E08EE290E00E942A00D8
:0202C40008959B
:10021C000F931F932F933F93EF93FF93BF93BFB70E
:10022C00BF93B0E0BBBB309181003BBB1EE820E02C
:10023C0000918000E02FF0E0E10FF21F008105BB80
:10024C00032F000F00938100003119F4B1E0B0933B
:10025C008100009180000F5F00938000043019F43E
:10026C00B0E0B0938000BF91BFBFBF91FF91EF9101
:0A027C003F912F911F910F911895EB
:100086000F931F938F939F93AF93BF93EF93FF931A
:10009600BF93BFB7BF9300918A0010918B001030B9
:1000A60009F40931A9F000918A0010918B000F5FC5
:1000B6001F4F00938A0010938B0000918C001091C3
:1000C6008D000150104000938C0010938D000BC0E2
:1000D600B0E0B0938A00B0938B00B9E1B0938C0086
:1000E600B0E0B0938D004AE050E000918A00109194
:1000F6008B00B2DF8D0100938600109387004AE0E3
:1001060050E000918A0010918B00A6DF8C010093CD
:100116008800109389004AE050E000918C0010910D
:100126008D009ADF8D0100938200109383004AE0D0
:1001360050E000918C0010918D008EDF8C010093B1
:10014600840010938500BF91BFBFBF91FF91EF91CF
:0E015600BF91AF919F918F911F910F911895BE
:10005E00C801BA01AA1BBB1B51E107C0AA1FBB1FD7
:10006E00A617B70710F0A61BB70B881F991F5A9536
:08007E00A9F780959095089503
:100286003F0006005B004F0066006D007D00070022
:100296007F006F0077007C0039005E0079007100F6
:0102A6000057
:0102A7000155
:0202A80005004F
:0202AA00020050
:0202AC00000050
:0202AE0000004E
:0202B00000004C
:0202B200190031
:00000001FF
