:100000000C94DD000C9400000C9400000C94000093
:100010000C9400000C9400000C9400000C94000060
:100020000C9400000C9400000C9400000C94000050
:100030000C9400000C9400000C9400000C94000040
:100040000C9400000C9400000C9400000C94000030
:040050000C9400000C
:1001BA00BFE5BDBFB8E0BEBFCDB7DEB72497CDBFA0
:1001CA00DEBF21962F923F92B0E0B883B983B0E0A8
:1001DA00BA83BB837CDF2881398103E010E00217F0
:1001EA001307ECF0088119810F5F1F4F08831983E9
:1001FA00B2E02B2EB0E03B2E71DF32DFB02FB12BF5
:10020A0041F0222433246ADFB1E0BA83B0E0BB8331
:10021A0006C0B1E02B2EB0E03B2E60DFDCCF0A81B6
:10022A001B81103009F4003029F4B3E02B2EB0E022
:0A023A003B2E54DF3F902F90FFCFC2
:0E00D800B8E1BAB9B6E8B0BDB3E3B9B908955E
:1000E600CF93DF93CDB7DEB7CA54D040CDBFDEBFC6
:1000F600219660E070E0E6E4F2E0DE01149686E424
:1001060090E0ABDFB0E03B1611F4B0E02B1651F4F3
:100116008E010C5F1F4F0A831B83B3E1B883B0E0E7
:10012600B98329C0B0E03B1611F4B1E02B1651F4A7
:100136008E01085E1F4F0A831B83B0E1B883B0E0CF
:10014600B98319C0B0E03B1611F4B2E02B1651F496
:100156008E01075D1F4F0A831B83BFE0B883B0E0A3
:10016600B98309C08E01075C1F4F0A831B83B0E168
:10017600B883B0E0B9839B01088119812017310744
:1001860094F40A811B81020F131FF80100813F922C
:100196002F92202E5CDF2F903F9089010F5F1F4F1B
:1001A600B8019B01E9CFC75BDF4FCDBFDEBFDF9153
:0401B600CF91089548
:0C005400BBB1B5FD01C0FCCF2CB8089575
:0A00600005900D920197E1F7089555
:10006A00CF93DF93CDB7DEB72997CDBFDEBF2196F9
:10007A0041E050E020E030E0E0E9F2E0DE0189E032
:10008A0090E0E9DF09E010E020173107CCF4A9017C
:10009A00BBB1B7FD01C0FCCF8E01FA01E00FF11F21
:1000AA0010810CB1101719F421E030E003C000E010
:1000BA0010E007C08A010F5F1F4FA9019801E2CF24
:0E00CA008A012896CDBFDEBFDF91CF91089549
:020244000000B8
:1002460057656C636F6D6520746F20455344204C71
:0402560061622100C0
:10025A00496E76616C69642050617373636F64657B
:01026A000093
:10026B00456E7465722050617373776F72643A00D8
:10027B0053797374656D2048616E672E2E21212191
:01028B000072
:02028C0001006F
:02028E0000006E
:0902900050617373776F72640D05
:00000001FF
