:100000000C9478000C9400000C9400000C940000F8
:100010000C9400000C9400000C9400000C94000060
:100020000C9400000C9400000C9443000C9400000D
:100030000C9400000C9400000C9400000C94000040
:100040000C9400000C9400000C9400000C94000030
:040050000C9400000C
:1000F000BFE5BDBFB8E0BEBF0E946901BFEFB4BBA2
:10010000BFE0BABBB1E0BBBBBBE0B3BFB9EFBCBFA4
:10011000BFB7B068BFBFB9B7B260B9BF00918800C0
:10012000109189001A3109F4043608F03CC000919E
:10013000620010916300103009F40130C8F420917E
:100140006400309165000091600010916100020F21
:10015000131F009388001093890000916200109192
:1001600063000F5F1F4F00936200109363001AC07B
:100170002091640030916500009160001091610051
:10018000200F311F20938800309389000091600078
:10019000109161000093640010936500209360004B
:1001A0003093610011C0B0E0B0938800B093890033
:1001B000B1E0B0936000B0E0B0936100B0E0B09304
:1001C0006400B0936500B3CF4AE050E0009188002E
:1001D000109189003FDF8D0100938A0010938B00FE
:1001E0009801220F331F08E610E0F901E00FF11F1C
:1001F000008100938C004AE050E00091880010914B
:10020000890028DF8C014AE050E024DF8D01009353
:100210008A0010938B009801220F331F08E610E02C
:10022000F901E00FF11F008100938D0044E650E0DA
:1002300000918800109189000DDF8C014AE050E0A8
:1002400009DF8D0100938A0010938B009801220F23
:10025000331F08E610E0F901E00FF11F0081009361
:100260008E0048EE53E00091880010918900F2DE84
:100270008C0100938A0010938B009801220F331F8A
:1002800008E610E0F901E00FF11F008100938F00F4
:1002900025E11BE40FEB0A95F1F71A95E1F72A9592
:0802A000D1F700003BCFFFCFB6
:0A007C0005900D920197E1F7089539
:10005400C801BA01AA1BBB1B51E107C0AA1FBB1FE1
:10006400A617B70710F0A61BB70B881F991F5A9540
:08007400A9F78095909508950D
:1002D200A0E6B0E0E8EAF2E08AE290E00E943E00A6
:0202E20008957D
:100086000F931F932F933F93EF93FF93BF93BFB7A6
:10009600BF93B0E0BBBB309166003BBB1CE820E0E1
:1000A60000916700E02FF0E0E10FF21F008105BB31
:1000B600032F000F00936600003119F4B1E0B093EE
:1000C6006600009167000F5F00936700043019F423
:1000D600B0E0B0936700BF91BFBFBF91FF91EF91B2
:0A00E6003F912F911F910F91189583
:0202A800010053
:0202AA00000052
:0202AC00000050
:0102AE00014E
:0102AF00004E
:1002B0003F0006005B004F0066006D007D000700F8
:1002C0007F006F0077007C0039005E0079007100CC
:0202D00000002C
:00000001FF
