:100000000C942A000C9400000C9400000C94000046
:100010000C9400000C9400000C9400000C94000060
:100020000C9400000C9400000C9400000C94000050
:100030000C9400000C9400000C9400000C94000040
:100040000C9400000C9400000C9400000C94000030
:040050000C9400000C
:10005400BFE5BDBFB4E0BEBFB5E5B7BBB5E5B8BB52
:1000640029E216E900E80A95F1F71A95E1F72A95CD
:10007400D1F7B0E0B8BB29E216E900E80A95F1F738
:0C0084001A95E1F72A95D1F7E9CFFFCFDC
:00000001FF
