:100000000C942A000C9400000C9400000C94000046
:100010000C9400000C9400000C9400000C94000060
:100020000C9400000C9400000C9400000C94000050
:100030000C9400000C9400000C9400000C94000040
:100040000C9400000C9400000C9400000C94000030
:040050000C9400000C
:10005400BFE5BDBFB4E0BEBFBFEFBABBB0E0B7BB46
:10006400B6B3B4FD01C001C0FBCF10E0B0E0BBBB30
:100074001F3019F400E0102F03C0012F0F5F102F61
:10008400B6B3B4FD03C0B0E0BBBB0DC01BBB1F9334
:1000940029E216E900E80A95F1F71A95E1F72A959D
:0A00A400D1F71F91E5CFDCCFFFCFAD
:00000001FF
