:100000000C9446000C9400000C9489000C940000A1
:100010000C9400000C9400000C9400000C94000060
:100020000C9400000C9400000C9400000C94000050
:100030000C9400000C9400000C9400000C94000040
:100040000C9400000C9400000C9400000C94000030
:040050000C9400000C
:10008C00BFE5BDBFB4E0BEBFCDB7DEB72297CDBFD5
:10009C00DEBF2196B8E0BABBB0E0BBBBB0E0B1BBF1
:1000AC00B8E0B2BBBFEFB7BBB8E0B5BFB0E8BBBF01
:1000BC00BFB7B068BFBFB0E0B883B98308811981FE
:1000CC00173209F4003140F4CDDF088119810F5F3C
:1000DC001F4F08831983F2CFB0E0B883B98308812E
:1000EC001981173209F4003140F4BCDF0881198101
:1000FC000F5F1F4F08831983F2CF08B3B1E00B27B2
:06010C0008BBD9CFFFCFB4
:10007000BEECB2BFB2E0B3BF08B70170003009F404
:0C008000FBCFB0E0B3BFB1E0B8BF089503
:100112000F931F93EF93FF93BF93BFB7BF93B8E0C3
:10012200BBBB20E030E0373209F4203130F491DFFC
:1001320089010F5F1F4F9801F6CFB0E0BBBB20E0F3
:1001420030E0373209F4203130F483DF89010F5F68
:100152001F4F9801F6CFB8E0BBBB20E030E037324A
:1001620009F4203130F475DF89010F5F1F4F9801C8
:10017200F6CFB0E0BBBBBF91BFBFBF91FF91EF9184
:060182001F910F9118957A
:10005400BEECB4BDB2E0B5BD08B70074003009F41D
:0C006400FBCFB0E0B5BDB0E4B8BF08951C
:00000001FF
