:100000000C943B000C9400000C9400000C94000035
:100010000C9400000C9400000C9400000C94000060
:100020000C9400000C942A000C9400000C94000026
:100030000C9400000C9400000C9400000C94000040
:100040000C9400000C9400000C9400000C94000030
:040050000C9400000C
:10007600BFE5BDBFB4E0BEBFB1E0BABBB1E0BBBB3C
:10008600B1E0B3BFB0E0B2BFB9B7B160B9BFBFB7F7
:08009600B068BFBFFFCFFFCF30
:10005400EF93FF93BF93BFB7BF930BB3B1E00B27ED
:100064000BBBB0E0B2BFBF91BFBFBF91FF91EF9197
:020074001895DD
:00000001FF
