:100000000C943B000C9400000C9400000C94000035
:100010000C9400000C9400000C9400000C94000060
:100020000C9400000C9400000C9400000C94000050
:100030000C9400000C9400000C9400000C94000040
:100040000C9400000C9400000C9400000C942A0006
:040050000C9400000C
:10007600BFE5BDBFB4E0BEBFB1E0BABBB1E0BBBB3C
:10008600BAE0B3BFB4E6BCBFB0E0B2BFB9B7B260C6
:0C009600B9BFBFB7B068BFBFFFCFFFCF3E
:10005400EF93FF93BF93BFB7BF930BB3B1E00B27ED
:100064000BBBB0E0B2BFBF91BFBFBF91FF91EF9197
:020074001895DD
:00000001FF
