:100000000C9442010C9400000C9400000C9400002D
:100010000C9400000C9400000C9400000C94000060
:100020000C9400000C9400000C940D010C94000042
:100030000C9400000C9400000C9400000C94000040
:100040000C9400000C9400000C9400000C94000030
:040050000C9400000C
:10028400BFE5BDBFB8E0BEBF0E948401BFEFB4BBF1
:10029400BFE0BABBB1E0BBBBBBE0B3BFB9EFBCBF0F
:1002A400BFB7B068BFBFB9B7B260B9BFA0DF009134
:1002B4008C0010918D009801220F331F05E610E089
:1002C400F901E00FF11F0081006800938E008FDFB9
:0602D400BFDEECCFFFCFFE
:1001F200BFE7BDBDBFEFBCBDB0E0BFBDB5E0BEBD9A
:1002020008B70470003009F4FBCFB0E0BFBDB0E026
:08021200BEBDB4E0B8BF0895C1
:10005400009187001091880098012F5F3F4F2093F3
:100064008700309388000CE310E00217130778F43C
:10007400B0E0B0938700B093880000918C00109199
:100084008D000F5F1F4F00938C0010938D00209103
:100094008C0030918D0009E010E00217130778F40A
:1000A400B0E0B0938C00B0938D0000918A00109161
:1000B4008B000F5F1F4F00938A0010938B002091D9
:1000C4008A0030918B0005E010E00217130778F4E2
:1000D400B0E0B0938A00B0938B000091850010913A
:1000E40086000F5F1F4F00938500109386002091B8
:1000F4008500309186000091620010916300021720
:10010400130778F4B0E0B0938500B09386000091B3
:100114006000109161000F5F1F4F00936000109307
:100124006100209160003091610002E010E002174C
:10013400130728F4B0E0B0936000B093610000911D
:10014400600010916100103009F4023039F4B3E01A
:10015400B0936200B0E0B093630006C0B9E0B0931E
:100164006200B0E0B093630000918C0010918D00A8
:100174009801220F331F05E610E0F901E00FF11F8B
:10018400008100938E0000918A0010918B009801E9
:10019400220F331F05E610E0F901E00FF11F008183
:1001A40000938F0000918500109186009801220F22
:1001B400331F05E610E0F901E00FF11F008100682C
:1001C4000093900000916000109161009801220F4B
:1001D400331F05E610E0F901E00FF11F00810093E1
:0401E40091000895E9
:0A01E80005900D920197E1F70895CC
:10030800A0E6B0E0EAEDF2E08EE290E00E94F400B0
:02031800089546
:10021A000F931F932F933F93EF93FF93BF93BFB710
:10022A00BF93B0E0BBBB309164003BBB1EE820E04B
:10023A0000918900E02FF0E0E10FF21F008105BB79
:10024A00032F000F00936400003119F4B1E0B0935A
:10025A006400009189000F5F00938900043019F44B
:10026A00B0E0B0938900BF91BFBFBF91FF91EF91FA
:0A027A003F912F911F910F911895ED
:0202DA00000022
:0202DC00090017
:0102DE00011E
:1002DF003F0006005B004F0066006D007D000700C9
:1002EF007F006F0077007C0039005E00790071009D
:0202FF000000FD
:020301000000FA
:0103030000F9
:020304000000F7
:020306000000F5
:00000001FF
